:020000040800F2
:1000000070060020290200083102000833020008AF
:10001000350200083702000839020008000000001D
:100020000000000000000000000000003B0200088B
:100030003D020008000000003F02000841020008E5
:10004000430200084302000843020008430200087C
:10005000430200084302000843020008430200086C
:10006000430200084302000843020008430200085C
:10007000430200084302000843020008430200084C
:10008000430200084302000843020008430200083C
:10009000430200084302000843020008430200082C
:1000A000430200084302000843020008430200081C
:1000B0004302000843020008000000004302000859
:1000C0004302000800000000000000004302000896
:1000D0000000000043020008430200084302000839
:1000E0004302000843020008000000000000000076
:1000F0000000000000000000000000000000000000
:1001000000000000000000000000000000000000EF
:100110000000000000000000430200084302000845
:1001200000000000000000000000000000000000CF
:1001300000000000000000000000000000000000BF
:1001400043020008430200080000000043020008C8
:10015000430200084302000843020008430200086B
:1001600043020008430200080000000000000000F5
:10017000000000000000000000000000000000007F
:10018000000000004302000800F002F800F03CF814
:100190000AA090E8000C82448344AAF10107DA45E2
:1001A00001D100F031F8AFF2090EBAE80F0013F0F8
:1001B000010F18BFFB1A43F0010318471006000097
:1001C00030060000103A24BF78C878C1FAD8520728
:1001D00024BF30C830C144BF04680C6070470000C1
:1001E0000023002400250026103A28BF78C1FBD840
:1001F000520728BF30C148BF0B6070471FB500F0E1
:10020000DFFA1FBD10B510BD00F031F81146FFF741
:10021000F5FF00F0A7FA00F04FF803B4FFF7F2FF84
:1002200003BC00F057F80000094880470948004720
:10023000FEE7FEE7FEE7FEE7FEE7FEE7FEE7FEE796
:10024000FEE7FEE704480549054A064B70470000F3
:10025000CD0600088901000870000020700600200B
:10026000700200207002002070477047704775468A
:1002700000F02CF8AE4605006946534620F0070012
:10028000854618B020B5FFF7DDFFBDE820404FF0F0
:1002900000064FF000074FF000084FF0000B21F070
:1002A0000701AC46ACE8C009ACE8C009ACE8C0093D
:1002B000ACE8C0098D46704710B50446AFF3008026
:1002C0002046BDE81040FFF7A8BF00000048704777
:1002D0000C00002001491820ABBEFEE726000200FA
:1002E000704700002DE9F04704460D460026B04651
:1002F000B1460027B4F1904F14D04C48844211D03D
:100300004B4884420ED04B4884420BD04A4884422A
:1003100008D04A48844205D04948844202D049481E
:10032000844200D103E0BE2147A000F011FA286802
:1003300000B103E0BF2144A000F00AFA287940B1DF
:100340002879012805D02879022802D028790328A5
:1003500000D103E0C0213CA000F0FAF9E87928B10F
:10036000E879012802D0E879022800D103E0C12110
:1003700035A000F0EDF9002653E0012000FA06F860
:10038000286800EA0809C1454AD12879012802D025
:10039000287902282ED16879012805D068790228A9
:1003A00002D06879032800D103E0D12126A000F013
:1003B000CFF9A0687200032191408843A06068795A
:1003C00071008840A1680843A060A87910B1A8799D
:1003D000012800D103E0D8211BA000F0B9F9A088C2
:1003E0000121B1408843A080A088A979B14089B299
:1003F0000843A08020687200032191408843206058
:10040000287971008840216808432060E7687100FE
:10041000032088408743E879710088400743E760FC
:10042000761C102EA9D3BDE8F08700000004004818
:1004300000080048000C0048001000480014004864
:1004400000180048001C004853544D3332463330E6
:10045000785F5374645065726970685F447269763E
:1004600065725C7372635C73746D333266333078BB
:100470005F6770696F2E630070B504460D46B4F176
:10048000904F14D01148844211D0114884420ED0AC
:10049000104884420BD01048844208D00F48844250
:1004A00005D00F48844202D00E48844200D104E0B7
:1004B00040F29D110CA000F04BF905B104E04FF49F
:1004C000CF7109A000F044F9258570BD00040048F3
:1004D00000080048000C00480010004800140048C4
:1004E00000180048001C004853544D333246333046
:1004F000785F5374645065726970685F447269769E
:1005000065725C7372635C73746D3332663330781A
:100510005F6770696F2E630070B504460D46B4F1D5
:10052000904F14D01148844211D0114884420ED00B
:10053000104884420BD01048844208D00F488442AF
:1005400005D00F48844202D00E48844200D104E016
:1005500040F28B110CA000F0FBF805B104E04FF461
:10056000C67109A000F0F4F8A56170BD0004004850
:1005700000080048000C0048001000480014004823
:1005800000180048001C004853544D3332463330A5
:10059000785F5374645065726970685F44726976FD
:1005A00065725C7372635C73746D3332663330787A
:1005B0005F6770696F2E630070B504460D46104882
:1005C000204008B904B104E040F246610DA000F0FB
:1005D000BFF80DB1012D00D104E040F2476109A040
:1005E00000F0B6F82DB11348406920431149486125
:1005F00004E010484069A0430E49486170BD000006
:1006000088FF00CE53544D3332463330785F5374F5
:10061000645065726970685F4472697665725C7374
:1006200072635C73746D3332663330785F72636308
:100630002E630000001002400CB5002001900090D5
:100640002048006840F480301E49086000BF1D4803
:10065000006800F4003000900198401C0190009860
:1006600018B90198B0F5A04FF1D11648006800F410
:10067000003010B10120009001E0002000900098AF
:1006800001281DD11020104908600E4840680D490E
:100690004860084640684860084640684860084628
:1006A000406820F0030048600846406840F00100C0
:1006B000486000BF0348406800F00C000428F9D1EE
:1006C0000CBD0000001002400020024010B51B4885
:1006D000006840F47000194908601948006840F04B
:1006E0000100174908600846406816490840144947
:1006F00048600846006814490840114908600846E7
:10070000006820F4802008600846406820F4FE005D
:1007100048600846C06A20F00F00C8620846006BB7
:100720000A4908400649086300208860FFF784FFF3
:100730004FF0006001498039086010BD88ED00E08D
:10074000001002400CC07FF8FFFFF6FECCFC00FF5B
:1007500000BFFEE7002100BF00E0491C8142FCDB36
:1007600070470000FFF7B2FF0121C804FFF724FF24
:10077000012010490871002088714FF48040086002
:100780000020C871012048710B48FFF7ABFD0FE056
:100790004FF480410848FFF7BFFE0848FFF7DAFF33
:1007A0004FF480410448FFF767FE0448FFF7D2FF8B
:1007B000EEE700000000002000080048E09304007D
:1007C0004FF04070E1EE100A70470000EC0700089F
:1007D000000000200C000000C4010008F807000819
:1007E0000C00002064060000E0010008000000008A
:0807F000000000000000000001
:0400000508000229C4
:00000001FF
